:020000040800F2
:1000000000500020C108000811090008110900086B
:10001000110900081109000811090008000000007A
:1000200000000000000000000000000011090008AE
:10003000110900080000000011090008110900085A
:100040001109000811090008110900081109000828
:100050001109000811090008110900081109000818
:100060001109000811090008110900081109000808
:1000700011090008110900081109000811090008F8
:1000800011090008110900081109000811090008E8
:1000900011090008110900081109000811090008D8
:1000A00011090008110900081109000811090008C8
:1000B00011090008110900081109000811090008B8
:1000C00011090008110900081109000811090008A8
:1000D0001109000811090008110900081109000898
:1000E00011090008110900080000000011090008AA
:1000F0001109000811090008110900081109000878
:100100001109000811090008110900081109000867
:100110001109000811090008110900081109000857
:100120001109000811090008110900081109000847
:1001300010B5054C237833B9044B13B10448AFF321
:1001400000800123237010BD00000020000000008B
:100150005C09000808B5034B1BB103490348AFF322
:10016000008008BD00000000040000205C090008B9
:1001700080B483B000AF0346FB710B46BB711346DE
:100180007B71FB79022B00F2B680BB790F2B00F25A
:10019000B2807B790F2B00F2AE80BB79072B52D84F
:1001A000FB79022B37D0022B00F3A680002B02D064
:1001B000012B18D0A0E0534B1B68BA7992000F2195
:1001C00001FA02F2D24311464E4A0B4013604D4BE6
:1001D0001B687979BA79920001FA02F21146494A0C
:1001E0000B43136088E0484B1B68BA7992000F21DB
:1001F00001FA02F2D2431146434A0B401360424BCC
:100200001B687979BA79920001FA02F211463E4AE6
:100210000B43136070E03D4B1B68BA7992000F21CD
:1002200001FA02F2D2431146384A0B401360374BB1
:100230001B687979BA79920001FA02F21146334AC1
:100240000B43136058E0BB790F2B54D8BB79083BA4
:10025000BB71FB79022B36D0022B4DDC002B02D078
:10026000012B18D048E02A4B1B68BA7992000F2165
:1002700001FA02F2D2431146254A0B401360244B87
:100280001B687979BA79920001FA02F21146204A84
:100290000B43136030E01F4B1B68BA7992000F21AB
:1002A00001FA02F2D24311461A4A0B401360194B6D
:1002B0001B687979BA79920001FA02F21146154A5F
:1002C0000B43136018E0144B1B68BA7992000F219E
:1002D00001FA02F2D24311460F4A0B4013600E4B53
:1002E0001B687979BA79920001FA02F211460A4A3A
:1002F0000B43136000E000BF00BF0C37BD4680BC5D
:10030000704700BF00080140000C01400010014090
:1003100004080140040C01400410014080B483B083
:1003200000AF0346FB710B46BB7113467B71FB7933
:10033000022B61D8BB790F2B5ED87B79002B2DD196
:10034000FB79022B1ED0022B57DC002B02D0012B95
:100350000CD052E02B4B1B68BA79012101FA02F252
:10036000D2431146274A0B40136046E0264B1B68D8
:10037000BA79012101FA02F2D2431146224A0B4016
:1003800013603AE0214B1B68BA79012101FA02F2AD
:10039000D24311461D4A0B4013602EE07B79012B9E
:1003A0002AD1FB79022B1CD0022B26DC002B02D099
:1003B000012B0BD021E0134B1B68BA79012101FA04
:1003C00002F211460F4A0B43136016E00E4B1B68F6
:1003D000BA79012101FA02F211460B4A0B4313606C
:1003E0000BE00A4B1B68BA79012101FA02F21146AF
:1003F000064A0B43136000E000BF00BF0C37BD4648
:1004000080BC70470C0801400C0C01400C100140EE
:1004100080B485B000AF78600023FB6003E000BFCC
:10042000FB680133FB607B684FF4FA7202FB03F355
:10043000FA689A42F3D300BF00BF1437BD4680BCB0
:10044000704780B500AF022201210020FFF790FE27
:10045000022202210020FFF78BFE0222062100204B
:10046000FFF786FE022205210020FFF781FE02220F
:1004700004210020FFF77CFE022203210020FFF769
:1004800077FE2320FFF7C4FF002201210020FFF7A1
:1004900045FF002202210020FFF740FF0022062135
:1004A0000020FFF73BFF002205210020FFF736FF69
:1004B000012204210020FFF731FF00220321002048
:1004C000FFF72CFF012202210020FFF727FF012068
:1004D000FFF79EFF002202210020FFF71FFF0520EB
:1004E000FFF796FF282000F01DF80E2000F01AF804
:1004F000012000F017F8062000F014F800BF80BDBE
:1005000080B582B000AF0346FB71012201210020BB
:10051000FFF704FFFB79184600F0C4F800BF083766
:10052000BD4680BD80B582B000AF0346FB7100229E
:1005300001210020FFF7F2FEFB79184600F0B2F827
:1005400000BF0837BD4680BD80B582B000AF78607F
:1005500009E07B6893F90030DBB21846FFF7D0FF63
:100560007B6801337B607B6893F90030002BF0D10E
:1005700000BF00BF0837BD4680BD80B500AF012079
:10058000FFF7D0FF00BF80BD80B586B000AF7860B8
:100590000023FB6007F1100300221A609A800023F9
:1005A000FB757B68002B03D13020FFF7A9FF49E0E2
:1005B0007B68002B27DA2D20FFF7A2FF7B685B42C8
:1005C0007B6020E07A68214B83FB02139910D317DC
:1005D000C91A0B469B000B445B00D11A97F91730E0
:1005E000CAB218333B4403F80C2C7B68174A82FBD1
:1005F00003129210DB17D31A7B6097F91730DBB226
:100600000133DBB2FB757B68002BDBD197F9173028
:10061000DBB2013BDBB2FB7510E097F91730183302
:100620003B4413F80C3C3033DBB21846FFF768FF4D
:1006300097F91730DBB2013BDBB2FB7597F9173046
:10064000002BEADA1837BD4680BD00BF67666666D4
:1006500080B582B000AF03460A46FB711346BB71FA
:10066000FB79002B02D0FB79012B16D1BB790F2B24
:1006700013D8FB79002B02D0012B07D00EE0BB79F9
:10068000803BDBB21846FFF74DFF07E0BB79403BEC
:10069000DBB21846FFF746FF00E000BF00BF083797
:1006A000BD4680BD80B582B000AF0346FB7100221D
:1006B00002210020FFF732FEFB791B09DBB203F0B9
:1006C0000103DBB21A4603210020FFF727FEFB7966
:1006D0005B09DBB203F00103DBB21A460421002000
:1006E000FFF71CFEFB799B09DBB203F00103DBB2D1
:1006F0001A4605210020FFF711FEFB79DB09DBB26A
:100700001A4606210020FFF709FE012202210020DF
:10071000FFF704FE0120FFF77BFE002202210020EC
:10072000FFF7FCFD0520FFF773FEFB7903F00103E3
:10073000DBB21A4603210020FFF7F0FDFB795B08CE
:10074000DBB203F00103DBB21A4604210020FFF7FD
:10075000E5FDFB799B08DBB203F00103DBB21A462F
:1007600005210020FFF7DAFDFB79DB08DBB203F09F
:100770000103DBB21A4606210020FFF7CFFD01225C
:1007800002210020FFF7CAFD0120FFF741FE0022F1
:1007900002210020FFF7C2FD0520FFF739FE00BF50
:1007A0000837BD4680BD000080B400AF0A4B1B680F
:1007B000094A43F001031360084B1B68074A23F002
:1007C00001031360054B1B68044A23F00203136006
:1007D00000BFBD4680BC70470010024004100240BC
:1007E00080B483B000AF03460A46FB711346BB7169
:1007F000BB791F2B2AD8FB79022B1CD0022B25DCBE
:10080000002B02D0012B0BD020E0134B1B68BA79D0
:10081000012101FA02F211460F4A0B43136015E061
:100820000E4B1B68BA79012101FA02F211460B4AFC
:100830000B4313600AE00A4B1B68BA79012101FAE5
:1008400002F21146064A0B43136000BF00BF0C378B
:10085000BD4680BC704700BF141002401C1002400F
:100860001810024080B500AFFFF79EFF0221022062
:10087000FFF7B6FFFFF7E5FD3520FFF741FE4FF428
:10088000FA70FFF7C5FDFFF778FE00210120FFF7A2
:10089000DFFE0A48FFF758FE4FF47A70FFF7B8FD05
:1008A000FFF76BFE40F2D240FFF76EFE4FF4FA7096
:1008B000FFF7AEFDFFF761FEDEE700BF7409000839
:1008C0000D488546AFF300800C480D490D4A0023C2
:1008D00002E0D458C4500433C4188C42F9D30A4AF5
:1008E0000A4C002301E013600432A242FBD300F063
:1008F00011F8FFF7B7FFFEE70050002000000020CE
:10090000000000208C090008000000201C000020CE
:10091000FEE7000070B500260C4D0D4C641BA410C2
:10092000A64209D100F01AF800260A4D0A4C641BB1
:10093000A410A64205D170BD55F8043B9847013676
:10094000EEE755F8043B98470136F2E784090008C2
:10095000840900088409000888090008F8B500BF68
:10096000F8BC08BC9E467047F8B500BFF8BC08BC90
:040970009E467047E8
:100974004849204D52204D554853454E0000000033
:040984005501000811
:040988003101000831
:04000005080008C126
:00000001FF
